:020000040800F2
:1000000070FC002021020008713F0008093600083A
:100010006D3F00085D1500085D69000800000000E4
:10002000000000000000000000000000255900084A
:10003000452C000800000000954F00086968000882
:100040003B0200083B0200083B0200083B0200089C
:100050003B0200083B020008CD2F0008E32F0008F8
:100060003B0200083B0200083B0200083B0200087C
:100070003B0200083B0200083B0200083B0200086C
:100080003B0200083B0200083B0200083B0200085C
:100090003B0200083B0200083B020008F92F000861
:1000A0003B0200083B0200083B0200083B0200083C
:1000B0003B0200083B0200083B0200083B0200082C
:1000C0003B0200083B0200083B0200083B0200081C
:1000D0003B0200083B0200083B0200083B0200080C
:1000E0003B0200083B0200083B0200083B020008FC
:1000F0003B0200083B0200083B0200083B020008EC
:100100003B0200083B0200083B0200083B020008DB
:100110003B0200083B0200083B020008FD680008A3
:100120003B0200083B0200083B0200083B020008BB
:100130003B0200083B0200083B0200083B020008AB
:100140003B0200083B0200083B0200083B0200089B
:100150003B0200083B020008000000003B020008D0
:100160003B0200083B020008000000000000000005
:100170003B0200083B0200083B02000800000000B0
:10018000000000003B0200083B0200083B020008A0
:100190003B0200080000000000000000000000001A
:1001A0000000000000000000000000003B0200080A
:1001B0003B020008000000003B02000800000000B5
:1001C000000000000000000000000000000000002F
:1001D00000000000000000003B0200083B02000895
:1001E0003B0200083B0200083B0200083B020008FB
:1001F0003B0200083B0200083B0200083B020008EB
:100200003B0200083B0200083B020008DFF80CD06C
:1002100000F05EFA004800478D71000870FC002075
:100220000648804706480047FEE7FEE7FEE7FEE790
:10023000FEE7FEE7FEE7FEE7FEE7FEE76D68000883
:100240000D0200082DE9F05F0546002092469B460E
:1002500088460646814640241BE0284641464746DC
:10026000224600F0B6F953465A46C01A914110D3BF
:1002700011461846224600F09DF92D1A67EB010839
:100280004F4622460120002100F094F917EB0009A7
:100290004E41201EA4F10104DFDC484631462A46C7
:1002A0004346BDE8F09F40EA01039B0703D009E005
:1002B00008C9121F08C0042AFAD203E011F8013B52
:1002C00000F8013B521EF9D27047D2B201E000F8AB
:1002D000012B491EFBD270470022F6E710B51346EA
:1002E0000A4604461946FFF7F0FF204610BD421C9F
:1002F00010F8011B0029FBD1801A70472DE9FE4F31
:10030000804681EA0300C00F0C46009021F00041B6
:1003100023F00045B8EB0200A94105D24046214632
:1003200090461C460B46024623F00040104347D03F
:10033000270DC7F30A00C3F30A510290401A019037
:1003400040286BDAC3F3130040F4801B00989246F8
:1003500020B10023D2EB030A63EB0B0B0198594643
:10036000C0F14002504600F025F906460D465046C1
:100370005946019A00F03DF910EB08006141002454
:1003800087EA115284EAE7731A4340D0009A62B3B5
:10039000019A012A4FEA075215DC001B61EB0201AA
:1003A0004FF0004202EA0752CDE90042001C41F53D
:1003B000801132462B4600F03DF903B0BDE8F08FC6
:1003C00040462146F9E7001B61EB0201001C41F5A4
:1003D000801300185B412018A2F5001747EB0301BA
:1003E00040EAD570B6196D4111E06D084FEA360646
:1003F00045EAC0754FEA0752001B61EB0201001C81
:1004000041F5801149084FEA300000195141324648
:100410002B4603B0BDE8F04F00F0FDB80098012274
:1004200040000023D0EB020263EBE073009821460A
:100430004FEAE074B8EB000061EB0401E9E783F0F8
:1004400000435BE781F0004158E72DE9FE4F81EA68
:10045000030404F0004421F0004100944FF0000B2D
:1004600023F0004350EA01045ED052EA03045BD05B
:10047000C3F30A54C1F30A552C44A4F2F334019493
:10048000A0FB0254C1F3130141F48011C3F3130321
:1004900043F4801301FB024400FB034E840A970AD5
:1004A00044EA815447EA8357A4FB076802958D0A02
:1004B00005FB07854FEA932C04FB0C542705029D8E
:1004C0004FEA065847EA1637B5EB08056EEB070CFE
:1004D000870E920E47EA811742EA8312A7FB0201B8
:1004E000B6EB0B0164EB00042B0D43EA0C335E18F2
:1004F00044EB1C50DA465146E7FB0201C5F31304F6
:100500004FEA0B3343EA14534FEA0432019C43EAA7
:100510000603A4F10C040294009CCDE900B400F0A1
:1005200089F803B0BDE8F08F00200146F9E70EB569
:10053000C10F80EAE0700844CA07002140F233434B
:100540008DE80E000A460B4600F074F803B000BDBB
:1005500070B5C1F30A5201F000450024C1F3130144
:1005600040F2FF3341F480119A4201DA002070BD5D
:1005700040F233439A42A2F2334203DC524200F08B
:1005800028F800E090402C43F1D0404270BD00F0CC
:10059000004230F000400AD0C10D01F56071C0F397
:1005A000160042EA0151C20840071143704700207B
:1005B00001467047202A04DB203A00FA02F10020AD
:1005C00070479140C2F1200320FA03F31943904091
:1005D0007047202A04DB203A21FA02F000217047FC
:1005E00021FA02F3D040C2F120029140084319469B
:1005F0007047202A06DBCB17203A41FA02F043EA83
:10060000E07306E041FA02F3D040C2F120029140CB
:1006100008431946704710B5141E73F1000408DA38
:10062000401C41F1000192185B411A4301D120F0B6
:10063000010010BD2DE9F04D92469B4611B1B1FA73
:1006400081F202E0B0FA80F220329046FFF7B2FF6A
:1006500004460F4640EA0A0041EA0B0153465A4657
:10066000084313D0114653EA010019D0C8F14002E3
:100670005046FFF7AEFF05460E46504659464246E5
:10068000FFF798FF084305D0012004E020463946D3
:10069000BDE8F08D0020054346EAE0762C43374361
:1006A0000A986305E40AA0EB08000022FD0A44EA68
:1006B00047540A3002D500200146E9E70105101928
:1006C0006941DDE9084500196941BDE8F04DA2E73F
:1006D000064C074D06E0E06840F0010394E807008F
:1006E00098471034AC42F6D3FFF794FD68850008B4
:1006F0008885000870B58C1810F8015B15F00703A9
:1007000001D110F8013B2A1106D110F8012B03E0AA
:1007100010F8016B01F8016B5B1EF9D12B0705D4B2
:100720000023521E0DD401F8013BFAE710F8013BFB
:10073000CB1A921C03E013F8015B01F8015B521E17
:10074000F9D5A142D8D3002070BD00002DE9F041B9
:1007500005460F460024A046601EF8490880012087
:10076000F749087005F0100040B14FF00108F54856
:10077000007820F01000F349087010E0F14800788C
:1007800000F0100028B105F00F00012801D0BDE8ED
:10079000F081EC48007800F00F00EA49087005F09D
:1007A0000F05E84806783007060E7019C6B2442EC9
:1007B00024D008DC122E0FD0222E10D0242E13D0DD
:1007C000422E22D10AE0482E16D0822E05D0842E49
:1007D00013D0882E19D112E000BF00BF00BF022045
:1007E00001F0FCF9044610E0D749D84800F064FB5A
:1007F000044604B109E000BF00BF00BF00BFD448F9
:10080000007801F0EBF9044600BF00BF002C7DD159
:100810000020D04908803046342E78D01EDC2228B3
:1008200076D00EDC142874D006DC112872D0122881
:1008300079D0132870D12AE018286ED02128F9D158
:1008400001E128286AD004DC232868D02428F1D1CB
:100850008EE031284AD03228ECD125E148287DD0DD
:100860000CDC42287BD004DC382879D04128E1D147
:10087000DDE0432875D04428DCD1F0E08138082839
:100880004AD2DFE800F0C8B4FDAC494949ED012087
:10089000B1490870022001F0A1F920B10020AE4951
:1008A0000870152406E1002004F0B4FB03F062F99F
:1008B00004464CB90020A249087000F00BFE044623
:1008C00014B90120A549087044B1FF2C06D09C48FA
:1008D000007808B900F004FE03F0B8F9032000F036
:1008E00035FE14B100209C490870E3E09A48007876
:1008F00048B100209849087004F08CFB03F0A6F979
:1009000000F0EEFD044600F022FE09E0D3E0CCE06A
:10091000A4E0C3E09FE006E0CAE0C0E0C0E0C0E0C1
:1009200000F016FEC6E005F0F7FF8D48007800B92C
:100930005124E4B903F01EF904464CB90020804963
:10094000087000F0C7FD044614B9012083490870FF
:100950006CB1FF2C0BD07A48007803E026E052E01F
:10096000A4E09FE008B900F0BBFD03F06FF9A1E03F
:1009700005F00EFB044674B90020714908707948EF
:1009800000F02AFD044634B97648008805F05EFA86
:1009900001207549087044B1FF2C06D068480078E2
:1009A00008B900F09BFD05F02DFE83E005F000FE88
:1009B00004464CB900206249087000F08DFD0446E1
:1009C00014B901206949087044B1FF2C06D05C4875
:1009D000007808B900F086FD05F084FE6AE000F0BA
:1009E00081FD05F07FFE00205549087062E000F0AF
:1009F00079FD044605F076FE00205149087004B1E7
:100A000058E0422600BF00F069FD05F0FBFD002024
:100A10004B4908704EE000F065FD044605F062FEAB
:100A200000204749087004B144E0412600BF00F0AF
:100A300055FD044605F0E6FD00204149087004B16B
:100A400038E0212600BF03F001F900F049FD04461B
:100A500000F07EFD2EE000F07BFD00BF00BF00BF78
:100A6000B8F1000F02D0304600F008FA354800789F
:100A700000F00C0080B134480088002805DD00E05B
:100A800011E0022002F0C3FA06E030480088002896
:100A900002DD032002F0BBFAFE240BE000BF00BF22
:100AA00000BF00BF00BF00BF00BF00BF112401E0B6
:100AB000122400BF24E02348007802280DD0042827
:100AC00006D008281CD100F00DFD05F00BFE00BF7C
:100AD00000F004FD05F096FD00BF162C0DD103F0CB
:100AE000B5F800F0FDFC002002F0ADF8012002F0A6
:100AF000AAF801201349087002E002201149087089
:100B0000FF2C49D101201A4908701248068000883C
:100B1000122806D0132805D0242808D0482829D127
:100B200006E000BF4FF4FA600449088026E000BFE9
:100B300042F228300149088020E0000074080020BB
:100B400094080020A20800209C0800209A08002099
:100B50009E080020960800206E080020BE08002095
:100B6000B8080020AA080020700800206F080020A4
:100B700095080020C8203349088000BF00BF3148D5
:100B8000B0F900000A2190FBF1F02E490988081AFB
:100B900000B22C49088049E02B48007800F00F0093
:100BA000A8423BD004B9DFB127480078284300F0C1
:100BB0000800A8B12548007818B100F093FC05F0B2
:100BC00091FD23480088002803DD022002F03BF855
:100BD00006E020480088002802DD032002F033F8F8
:100BE0006CB119480078082802D104201649087011
:100BF0001548007840F010001349087005E017B15F
:100C00003C4645F010051048057000201249087058
:100C100021460D48007805F035F907E000200E491F
:100C2000087000210848007805F02CF906F08000D3
:100C300030B106F0080018B94FF4EA4001F000FEA8
:100C400000BFA4E574080020A20800206F0800205F
:100C50009C0800209A0800209508002070B577486D
:100C6000007800287AD000240025002674480088E7
:100C7000002855D173480088C0F3071571480088D3
:100C8000122806D0132805D0242812D0482846D18F
:100C90001EE000BF6C48007808B900F021FC02F0AB
:100CA000D5FF6A48007810B16948068800E001263F
:100CB00035E06548007808B900F010FC05F0A2FCAA
:100CC0006248007810B16248068800E0012626E0FC
:100CD0006048007878B16048007808B92D2615E0A2
:100CE0005E48007828B95E480088002801DD1B2690
:100CF0000CE01A260AE05A480088002801DD1B266D
:100D000004E00825002601205649087036B14E48F7
:100D1000007808B900F0E6FB05F0E4FC00BF80E0D5
:100D200048480088122806D0132805D024281DD052
:100D3000482875D131E000BF43480078A8B10020B1
:100D40004149087000F0C6FB044644B901204649F9
:100D500008703C48007800F00F0506E06DE0FF2CBD
:100D600003D000F0BDFB02F071FF59E03648007877
:100D700090B10020344908703C4800F02DFB044637
:100D800024B901203A490870042505E0FF2C03D05E
:100D900000F0A4FB05F036FC42E02B48007828B3B5
:100DA0002C48007818B33348B0F90000002836DD2D
:100DB0003048B0F900003049B1F9001088422EDC0B
:100DC00000202C4908802C4908801F49087000F039
:100DD00083FB044624B901202249087008251EE03F
:100DE000FF2C1CD000F07EFB05F07CFC17E01C48BB
:100DF000008810B11948007888B1002012490870A5
:100E000000F06AFB044624B9012016490870082541
:100E100005E0FF2C03D000F065FB05F063FC00BF8C
:100E200000BF4DB10020054908700EB145F0100516
:100E30003146284605F026F800BF70BD9508002011
:100E400074080020960800209408002091080020D3
:100E50009208002073080020760800207108002006
:100E60009C0800206F080020BE080020AA0800206F
:100E7000700800207E0800208008002070470000D5
:100E800010B5002413E004EB840000EBC400094912
:100E900001EB0010007840B104EB840101EBC401C8
:100EA000044A02EB011001F05DF8601C84B2022CD0
:100EB000E9DB10BD480900202DE9F84F82468B463A
:100EC0004FF00009002400200090002500278046F4
:100ED0000026B4480088022802DD1920BDE8F88FFA
:100EE00000245BE0AF48801C10F81400C0F303102E
:100EF00000900098A0422BD104EB840000EBC400CA
:100F0000A94901EB00100078002845D104EB8400CA
:100F100000EBC40001EB0010D0F8CC6009E03046D3
:100F200000F0DEFB8146B9F1000F01D04846D5E75D
:100F3000283630894FF6FF718842F0D1012004EB4A
:100F4000840101EBC401984A02EB0111087023E00F
:100F500004EB840000EBC400934901EB001000781F
:100F6000D0B104EB840000EBC40001EB0010D0F81A
:100F7000CC6003E0308900F037FD283630894FF629
:100F8000FF718842F6D1002004EB840101EBC4011B
:100F9000854A02EB01110870601C84B28148008808
:100FA000A0429FDC002483E07E48801C10F81400DF
:100FB00000F00F0020B1012829D0022875D14CE0A3
:100FC0004FF4C07104EB840000EBC400764A02EBDE
:100FD0000010C0F8C81000250EE004EB840000EB00
:100FE000C400714901EB0010203010F82500404486
:100FF0001FFA80F8681C85B204EB840000EBC40083
:10100000694901EB0010808BA842E6DC4DE08021AD
:1010100004EB840000EBC400634A02EB0010C0F84C
:10102000C81000250EE004EB840000EBC4005E490C
:1010300001EB0010383010F8250040441FFA80F80A
:10104000681C85B204EB840000EBC400564901EB38
:101050000010808EA842E6DC27E04FF4807104EB9C
:10106000840000EBC400504A02EB0010C0F8C81026
:1010700000250EE004EB840000EBC4004A4901EBBC
:101080000010483010F8250040441FFA80F8681C12
:1010900085B204EB840000EBC400434901EB00106F
:1010A000B0F84400A842E5DC00BF00BF601C84B279
:1010B0003C480088A0423FF777AF4FEAE808B9F113
:1010C000000F69D1002461E0384810F8140000F0E6
:1010D0000F0020B101281ED0022854D137E000258E
:1010E0000DE004EB840000EBC4002F4901EB00107D
:1010F000583010F82500384487B2681C85B204EBDC
:10110000840000EBC400284901EB0010B0F8540043
:10111000A842E6DC37E000250DE004EB840000EB9C
:10112000C400214901EB0010703010F8250038444C
:1011300087B2681C85B204EB840000EBC4001A4936
:1011400001EB0010B0F86C00A842E6DC1BE00025C3
:101150000DE004EB840000EBC400134901EB001028
:10116000803010F82500384487B2681C85B204EB43
:10117000840000EBC4000C4901EB0010B0F87C00C7
:10118000A842E6DC00BF00BF601C84B20748801E96
:101190000088A04298DCFF10AAF80070ABF800802D
:1011A00048469BE60C00002048090020140000205F
:1011B00070B504460022204600BF78E03F4B13F88C
:1011C0001230C3F303113D4B13F8123003F00F0339
:1011D00023B1012B30D0022B66D149E0034601EB4D
:1011E000810505EBC105364E06EB0515B5F89050A7
:1011F0001D8001EB810505EBC10506EB0515D5F852
:10120000A0505D6001EB810505EBC10506EB0515FE
:10121000D5F8A4509D6001EB810505EBC10506EBF7
:10122000051595F89C509D81244DAD1E2D886D1E91
:10123000954200DD103037E0034601EB810505EBF8
:10124000C1051F4E06EB0515B5F890501D8001EB4A
:10125000810505EBC10506EB0515D5F8A0505D60CD
:10126000164DAD1E2D886D1E954200DD0C301BE025
:10127000034601EB810505EBC105114E06EB051593
:10128000B5F890501D8001EB810505EBC10506EB1B
:101290000515D5F8A0505D60084DAD1E2D886D1E5A
:1012A000954200DD0C3000BF00BF531C9AB2034BC7
:1012B0009B1E1B88934281DC70BD0000140000203F
:1012C00048090020F0B504460022204600BF78E01F
:1012D0003F4B13F81230C3F303113D4B13F8123098
:1012E00003F00F0323B1012B30D0022B66D149E06C
:1012F00003461E8801EB810505EBC105354F07EB61
:101300000515A5F88E6001EB810505EBC10507EB1E
:1013100005155E68C5F8AC6001EB810505EBC105FC
:1013200007EB05159E68C5F8C4601E7B01EB8105BF
:1013300005EBC10507EB0515A5F89A60244DAD1E18
:101340002D886D1E954200DD103037E003461E8863
:1013500001EB810505EBC1051E4F07EB0515A5F84F
:101360008E6001EB810505EBC10507EB05155E6895
:10137000C5F8AC60164DAD1E2D886D1E954200DD82
:101380000C301BE003461E8801EB810505EBC1050F
:10139000104F07EB0515A5F88E6001EB810505EBF5
:1013A000C10507EB05155E68C5F8C460084DAD1EA4
:1013B0002D886D1E954200DD0C3000BF00BF531C10
:1013C0009AB2034B9B1E1B88934281DCF0BD000048
:1013D0000E0000204809002038B504460020009087
:1013E00033480088B0BB002032490988324A118056
:1013F00030490988314A118000BF26E04FF4C97294
:101400002D49091D41F820202A49891C11F8101086
:1014100001F00F0121B1012908D0022912D10BE0FE
:10142000274A2649091D41F820200BE0254A234977
:10143000091D41F8202005E0234A2049091D41F8F3
:10144000202000BF00BF411CC8B21A490988814250
:10145000D4DC00BF04224FF41A61684602F058F849
:10146000009800901948007801281ED14FF47A7234
:101470000099B1FBF2F10091002013E000EB800134
:1014800001EBC001124A02EB0111097841B100EBF6
:10149000800202EBC0020E4B03EB02120099916135
:1014A000411C88B20228E9DB00BF002038BD0000E3
:1014B0002C0000200C00002020000020380000201C
:1014C0000098110000982100009831007308002056
:1014D0004809002000207047002070470020704716
:1014E000002070470020704770B5054600262C4646
:1014F00007E0204600F0F4F806460EB1304670BD15
:10150000283420894FF6FF718842F2D13046F6E741
:1015100038B504460D4645EAC40080B200904FF449
:101520008051084805F0BCFD9DF8010005F018FA4F
:10153000054908709DF8000005F012FA024948704C
:1015400038BD0000000402400400002070477047CE
:101550000020014908707047E008002000BFFEE746
:1015600008B50020009000BF9320009004224FF4A3
:101570000171684601F0E0FF0020009004224FF462
:101580000171684601F0C4FF00989328ECD1002057
:10159000009004224FF40171684601F0CDFF72B64D
:1015A00006F0CEF806F030FB06F0A6F962B6002091
:1015B00008BD00002DE9F04105460C461646B04630
:1015C0002F4611E072B602212046FFF7A1FFFF204F
:1015D00005F0C6F938707F1C4FF48051074805F0BC
:1015E00061FD62B6601C84B2B8F10000A8F101018F
:1015F0001FFA81F8E6DCBDE8F0810000000402403B
:101600002DE9F04704460D461646B0464FF0000956
:10161000274602212846FFF77BFF09E0B8F1000FBB
:1016200001D14FF0FF09484605F09AF938707F1C48
:10163000B8F10000A8F101011FFA81F8EEDC4FF4C7
:101640008051024805F02EFDBDE8F08700040240FD
:101650002DE9F84305460C461646B0462F4611E0E4
:1016600072B604212046FFF753FF387805F078F969
:1016700000907F1C4FF48051074805F013FD62B6BF
:10168000601C84B2B8F10000A8F101011FFA81F8D2
:10169000E6DCBDE8F8830000000402402DE9F843D1
:1016A00004460D461646B046274604212846FFF755
:1016B0002FFF04E0387805F053F900907F1CB8F153
:1016C0000000A8F101011FFA81F8F3DC4FF480510A
:1016D000024805F0E7FCBDE8F88300000004024082
:1016E0000146002940D02148006848B91F480160E0
:1016F00000201E4A126850601C4A12681060704731
:101700001A48006800890A8990420BDD00200860B1
:101710001648006848601548006801601348016079
:101720000020ECE7114802681BE010890B89984201
:1017300001D10120E3E710890B89984209DD106887
:1017400008604A60106808B11068416011600020AC
:10175000D5E7506820B951600A6000204860CEE7A4
:101760005268002AE1D100BF0120C8E73C060020F2
:1017700030B507480468002504E0258964682846D8
:1017800000F032F9002CF8D100200149086030BD8A
:101790003C06002010B504460E48006840B1002108
:1017A0000C48006802F036F900200A4908600FE092
:1017B0004FF4806005F01AFD04460CB9072010BDF7
:1017C0000E2205492046FEF76EFD204603F06AFE14
:1017D0000020F4E754080020600C00200148006855
:1017E000704700003C0600200020024908600249C2
:1017F00008807047540800201809002038B50024DC
:1018000025480068002845D02448007800902448E6
:1018100003682448026824480178244800881E4D43
:101820002D68A8470446FF2C34D0214800780128B1
:1018300011D0022804D0032814D004281AD110E0B3
:101840001C48006830B11B48006805F001FC00200E
:101850001849086000BF00221146204603F094FF9B
:1018600008E000BF0E4802680E480168204603F0F9
:101870008BFF00BF00BF00200D4908700B49088096
:10188000094908700749086005490860034908705C
:101890000149086038BD000010090020010900203E
:1018A0000C0900200809002002090020040900207A
:1018B000000900201409002010B500240020084968
:1018C00008600848FFF710FE04460CB1204610BD22
:1018D000054810B1FFF708FE04462046F7E7000070
:1018E0003C06002040060020F400002038B52020EF
:1018F0002E49088000204880486044F21F008881FB
:101900002B48086100204861888308620885488563
:1019100081F8400020202749088000204880234883
:1019200040684860214880898881214808610020FA
:101930004861888308620885488581F840001E490F
:101940000870FFF7B9FF04460CB1FFF711FF002044
:101950001A4908701A4908701A4908801A4908700B
:101960001A4908601A4908601A4908601A4908604B
:10197000009004220821684601F0CAFD00980090FA
:10198000009800F0080018B100201449087008E021
:1019900001201249087004224FF41161104801F02F
:1019A000B7FD4FF47A600F49086038BDD80B0020AE
:1019B00020A107001C0C0020E008002000090020E6
:1019C0000109002004090020020900200809002064
:1019D0000C09002010090020140900208E080020A6
:1019E000000600200406002030B503460E490868B2
:1019F00015E00189994211D10268416802B1516034
:101A000001B10A600024046044600489064D2D6819
:101A10002D89AC4201D1044C216030BD40680028C2
:101A2000E7D100BFF9E700003C06002070B504468E
:101A30000025E088000B092817D2DFE800F0161017
:101A4000050F111213140A00204603F0FFFA054691
:101A50000DE0204603F026FD054608E000BF00BF6C
:101A600000BF00BF00BF042501E0052500BF00BF87
:101A7000284670BD08B51948007828B31848006892
:101A8000009004224FF41161684601F041FD1448B2
:101A9000D0E900200022134600990A431843104958
:101AA000C1E900200F4900980968884208D20C4813
:101AB000D0E90010091C40F10100094AC2E90010F8
:101AC00008490098086005E008224FF411610448B5
:101AD00001F01EFD00200449086008BD8E080020AA
:101AE000F805002000060020040600201348408D61
:101AF000002805DC1148008D11490989884204DD60
:101B000001200E4981F8400003E000200B4981F8D4
:101B100040000C48408D002805DC0A48008D08492B
:101B20000989884204DD0120064981F8400003E06C
:101B30000020044981F8400070470000D80B0020C5
:101B4000E40800201C0C002008B51D480088F8B1EE
:101B50000020009002224FF48861684601F0D8FC12
:101B6000BDF800000090BDF8000000F0010070B961
:101B70001448008800280ADD1348007820B11B2192
:101B80000420FEF7E3FD08BD00201049087000BFE7
:101B90000F48007890B10C48007878B10D48007873
:101BA00020B92C210420FEF7D1FDECE70A4800788B
:101BB00020B91A210420FEF7C9FDE4E700BFE2E7DF
:101BC000A40800209C0800206F0800207108002055
:101BD00073080020760800207C0800202DE9F047DB
:101BE00080460027002500269348008842F6FF71B2
:101BF00088420BDB90480088884207DB8E480088CB
:101C0000884203DB8C480088884202DA1420BDE851
:101C1000F087002001F048FC044665882688A079FA
:101C200000F0010008B916271FE0207900F00C0031
:101C3000042801D0162718E0207900F002000228BD
:101C400001D0162711E0242D01DA16270DE0B5F595
:101C5000806F01DD162708E0B6F5805F01DA1627F0
:101C600003E0B6F5405F00DB162707BB012001F05B
:101C70001BFC044665882688A07900F0010008B99D
:101C800016271EE0207900F00C0008B1162718E096
:101C9000207900F00200022801D0162711E0242D3F
:101CA00001DA16270DE0B5F5806F01DD162708E093
:101CB000B6F5A05F01DA162703E0B6F5405F00DB5A
:101CC0001627002F4BD1B8F1030F48DD01205B49E7
:101CD0000870032001F0E8FB044665882688A07997
:101CE00000F0010010B10DB9042736E0A07900F032
:101CF000010068B352480088854204D150480088EA
:101D000008B1442D01DD032727E0207900F00C0005
:101D1000E0B94C480078022805D1B6F5805F02DBB7
:101D2000B6F5405F07DB4748007802280CD04648EC
:101D30000088864208D1207900F0020002280CD1E8
:101D400000203E49087008E0022706E0042704E06E
:101D500015B93B48008800B1032707B11E27DFBB38
:101D6000B8F1020F54DD022001F09EFB04466588A5
:101D70002688A07900F0010010B10DB9042745E0D4
:101D8000A07900F0010040B330480088854236D188
:101D90002E48008880B3442D31DC207900F00C00FF
:101DA00004282AD127480078022805D1B6F5805F9B
:101DB00002DBB6F5405F07DB22480078022819D025
:101DC00023480088864215D1207900F0400028B1D0
:101DD00001202049087004E01AE012E000201D49AB
:101DE0000870207900F0020002280FD1002013496A
:101DF00008700BE0022709E001E0042706E0032752
:101E000004E015B91148008800B1032707B11D2768
:101E100087B9C1460AE0484601F046FB0446E0881F
:101E20000D49088009F1010000F0FF090B48007816
:101E30008145F0DB3846EAE6A00800209008002043
:101E40009A080020A2080020A80800209C08002072
:101E5000A608002072080020AE0800209E0800207E
:101E60000246022940D003DC39B101296ED106E0D7
:101E7000032952D0222969D125E00020704741F67C
:101E8000324082420BD133480088002807DD3248B7
:101E9000007B00F00200002801DD0020EEE741F6A3
:101EA000334082420ED12D48007B00F00200002812
:101EB00008DD2848008828B929480088002801DD65
:101EC0000020DBE742E041F6334082420BD1234859
:101ED000007B00F00200002805DD1E480088002875
:101EE00001DD0020CAE731E041F63240824207D1ED
:101EF0001948007B00F00400002801DD0020BDE748
:101F000041F63340824207D11448007B00F00400C0
:101F1000002801DD0020B1E718E041F6324082429E
:101F200007D10D48007B00F00800002801DD0020EB
:101F3000A4E741F63340824207D10848007B00F015
:101F40000800002801DD002098E700BF00BF122034
:101F500094E700009C080020D80B00201C0C0020F7
:101F60009A08002010B50446208970B1B4F89C008E
:101F7000082803D0B4F89C00092806D1B4F89000D2
:101F800020F48051A4F8901005E0B4F8900040F4DB
:101F90008051A4F890102089A0F5C0405A3830B183
:101FA000012844D002284DD0042861D155E0B4F86E
:101FB000920083B2B4F99200042817DDB4F99200BC
:101FC000092813DAB4F89200052800D10123B4F8E7
:101FD0009200062800D10223B4F89200072800D10D
:101FE0000323B4F89200082800D10423214618B234
:101FF00000F088FDD0B100202081B4F992000028C3
:1020000006DDB4F99200052802DA0220E0800DE036
:10201000B4F99200042809DDB4F99200092805DA20
:10202000B4F8900040F48061A4F8901027E0B4F96F
:102030009400214600F066FD18B1002020810420A4
:10204000E0801CE0B4F99600214600F05BFD18B179
:10205000002020810820E08011E0B4F9980021469A
:1020600000F050FD18B1002020818020E08006E0C3
:10207000B4F8900040F48051A4F8901000BF00BF65
:102080000848007868B1A06958B194F89A10491EC0
:10209000D4F8C800C84000F0010010B1204600F09C
:1020A0003FF810BD7308002070B5002400BF2EE07B
:1020B00004EB840000EBC400164901EB0010D0F8DB
:1020C000CC00E8B104EB840000EBC40001EB00108D
:1020D000D0F8CC5003E02889FFF786FC2835288902
:1020E0004FF6FF718842F6D104EB840101EBC40185
:1020F000084A02EB0111D1F8CC0004F0A9FF00BF9F
:1021000000200549088005490880601CC4B2022CE3
:10211000CEDB70BD480900209C0800209A080020F2
:1021200070B52DED088B044694ED060AB8EE400A12
:10213000DFED460A20EE200AB0EE408A002518EEB8
:10214000100AFEF724FA41EC1A0BD4F8A400FEF7AB
:10215000EEF941EC1B0B53EC1A2BFEF776F941EC30
:10216000190B94ED041BB0EE410AF0EE610A53EC3A
:10217000102BFEF7C3F8C4E9040194ED041BB0EE84
:10218000410AF0EE610A51EC100BFEF7E1F9C4F8D8
:10219000A0002079002850D0A07800284DD0E07809
:1021A00000284AD06078002847D1D4F8B810D4F875
:1021B000A000814205DCD4F8A010D4F8AC00814224
:1021C00035DDD4F8B410D4F8A000814205DBD4F892
:1021D000A010D4F8AC00814229DAB4F8900020F4C1
:1021E0000061A4F89010B4F99C00082802D00928D6
:1021F0001BD112E0B5EEC08AF1EE10FA0BD0D4F884
:10220000AC10D4F8A000091ABDEEC80A10EE100AEE
:1022100091FBF0F500E0002508E0E088102802D1ED
:10222000D4F8C45000E0002500E000BF05E0B4F899
:10223000900040F40061A4F89010C4F8A450B4F8E1
:102240009A10A4F89C10BDEC088B70BD27288F3A1B
:102250002DE9F0410027002400254FF400664FF0DF
:10226000100800BFE4E204EB840101EBC401F84A6A
:1022700002EB0110D021FEF72FF8002004EB8401BF
:1022800001EBC401F24A02EB01110870012004EBDA
:10229000840101EBC40102EB0111487004EB8401DD
:1022A00001EBC40102EB01118870002004EB8401F2
:1022B00001EBC40102EB0111C87004EB840101EBD6
:1022C000C40102EB01110871012004EB840101EB50
:1022D000C40102EB0111487104EB840101EBC4015C
:1022E00002EB0111C880002004EB840101EBC40162
:1022F00002EB011108819FEDD70B04EB840000EB8A
:10230000C400114601EB001080ED040B002004EB2B
:10231000840101EBC40102EB0111886104EB84012B
:1023200001EBC40102EB011101F11C00B022CB4909
:10233000FDF7B9FF002518E004EB840000EBC400B2
:10234000C34901EB0010203050F82500310404FB94
:10235000010104EB840000EBC400BD4A02EB001055
:10236000203040F82510681C85B204EB840000EB97
:10237000C400B74901EB0010808BA842DCDC0025CB
:1023800018E004EB840000EBC400B14901EB00103D
:10239000383050F82500310404FB010104EB8400BF
:1023A00000EBC400AA4A02EB0010383040F82510B8
:1023B000681C85B204EB840000EBC400A44901EB67
:1023C0000010808EA842DCDC002518E004EB8400BD
:1023D00000EBC4009E4901EB0010483050F8250086
:1023E000310404FB010104EB840000EBC400984AB3
:1023F00002EB0010483040F82510681C85B204EB51
:10240000840000EBC400924901EB0010B0F84400D6
:10241000A842DBDC002518E004EB840000EBC400DC
:102420008B4901EB0010583050F82500310404FBB3
:10243000010104EB840000EBC400854A02EB0010AC
:10244000583040F82510681C85B204EB840000EB7E
:10245000C4007F4901EB0010B0F85400A842DBDC57
:10246000002518E004EB840000EBC400784901EB80
:102470000010703050F82500310404FB010104EB1A
:10248000840000EBC400724A02EB0010703040F888
:102490002510681C85B204EB840000EBC4006C4975
:1024A00001EB0010B0F86C00A842DBDC002518E05E
:1024B00004EB840000EBC400654901EB00108030A0
:1024C00050F82500310404FB010104EB840000EB0B
:1024D000C4005F4A02EB0010803040F82510681CF1
:1024E00085B204EB840000EBC400594901EB0010F5
:1024F000B0F87C00A842DBDC4FF47A7004F076FE82
:1025000004EB840101EBC401514A02EB0111C1F853
:10251000CC0004EB840101EBC40102EB01114FF488
:102520007A72D1F8CC004E49FDF7BDFE04EB840170
:1025300001EBC401464A02EB0111D1F8CC006FE176
:102540000121038946F25E0CA3EB0C02634572D0B5
:1025500028DC46F23F0CA3EB0C0263456CD014DC84
:10256000B3F5D05F5DD009DCB3F5B05F3BD06FF45D
:10257000B0521A44AAB3012A69D148E06FF4D0528C
:102580001A447AB3012AF7D16EE01B2A6AD004DC20
:10259000012A68D0022AEFD18CE01C2A78D01D2AAB
:1025A000EAD1A5E01C2A74D00CDC062A72D004DC27
:1025B000022A70D0032ADFD1B8E00E2A6CD0192A83
:1025C000DAD1D1E0642A68D004DC1F2A70D0272A2F
:1025D000D2D1E7E0A12A6CD0A2F2A442002ACBD14A
:1025E000FEE00AE029E004EB840202EBC402184B8F
:1025F00003EB02121C328261FEE004EB840202EB68
:10260000C402134B03EB021234328261F4E004EB98
:10261000840202EBC4020E4B03EB021244328261CD
:10262000EAE004EB840202EBC402094B03EB021262
:1026300054328261E0E065E020E004EB840202EBCA
:10264000C402034B03EB02126C328261D4E0D1E08E
:1026500048090020000000000000000044000020A5
:102660000C02002030E019E004EB840202EBC4020B
:10267000724B03EB02127C328261BDE004EB8402F8
:1026800002EBC4026D4B03EB02128C328261B3E0A9
:1026900024E073E054E03FE05CE08DE004EB840272
:1026A00002EBC402654B03EB02128E328261A3E09F
:1026B0006EE08BE004EB840202EBC4025F4B03EBA1
:1026C00002129032826197E004EB840202EBC402B2
:1026D0005A4B03EB0212923282618DE004EB8402CA
:1026E00002EBC402554B03EB02129432826183E089
:1026F00004EB840202EBC402504B03EB021296324D
:10270000826179E004EB840202EBC4024B4B03EBE1
:102710000212983282616FE004EB840202EBC40281
:10272000464B03EB02129A32826165E004EB8402AD
:1027300002EBC402414B03EB02129C3282615BE06C
:1027400004EB840202EBC4023C4B03EB0212A03206
:10275000826151E004EB840202EBC402374B03EBCD
:102760000212A432826147E004EB840202EBC4024D
:10277000324B03EB0212A83282613DE004EB84028B
:1027800002EBC4022D4B03EB0212AC32826133E048
:1027900004EB840202EBC402284B03EB0212B032BA
:1027A000826129E004EB840202EBC402234B03EBB9
:1027B0000212BC3282611FE004EB840202EBC4020D
:1027C0001E4B03EB0212C032826115E004EB84025F
:1027D00002EBC402194B03EB0212C43282610BE01C
:1027E00004EB840202EBC402144B03EB0212C83266
:1027F000826101E0002100BF00BF0289B2F5A05F45
:1028000008DB0289B2F5E05F04DA028904FB0822E2
:10281000028103E0028904FB06220281283000BF06
:1028200001894FF6FF7291427FF48AAE601C84B238
:10283000022CFFF618AD3846BDE8F08148090020AB
:1028400010B50146002000BF1CE000EB800202EB47
:10285000C0020E4B03EB021212788AB1402200EB49
:10286000800303EBC003094C04EB0313DA8000EB95
:10287000800202EBC002234603EB0212A2F88C1086
:10288000421C90B20228E0DB10BD00004809002085
:1028900030B500220021002300BF29E103EB8304AF
:1028A00004EBC304954D05EB0414247804B91DE131
:1028B00003EB830404EBC304904D05EB0410B0F864
:1028C0009020B0F88E1040F26F24A243048904B126
:1028D00030BDC488042C05DA894C2478082C01D139
:1028E0000424C480C488102C55D008DC012C0DD0E1
:1028F000022C16D0042C1DD0082C6ED131E0202CD7
:1029000077D0402C6BD0802CF7D193E000BF7C4C6B
:102910002478082C02D10224C48001E00124C48060
:1029200095E042F0400201F08704062C01D1042416
:10293000C4808CE042F0210201F08604022C02D017
:1029400001F0820414B90224C48009E001F08F046C
:10295000072C03D001F08F040F2C01D10824C48070
:1029600075E042F0230201F08704062C02D1042412
:10297000C4800FE001F08604022C02D001F0820432
:1029800014B90224C48005E001F08F040F2C01D19A
:102990001024C4805BE042F0270201F08F04072C72
:1029A00009D1B0F896401CB146F25C0404818FE76F
:1029B0000824C4801CE001F08604022C02D12024EB
:1029C000C48015E001F08704062C0CD1B0F89440C7
:1029D00034B146F25B0404817AE734E009E01DE09B
:1029E0000424C48004E001F082040CB90224C480F1
:1029F0002DE042F00702B0F892404CB190F89040C0
:102A000004F06F04072C03D046F25A0404815FE7F8
:102A100001F082040CB90224C48018E042F00F02D5
:102A2000B0F898401CB146F25E04048150E780245F
:102A3000C4800CE042F0080201F08004802C01D137
:102A40000224C48003E000220124C48000BF00BF30
:102A5000C488102C22D008DC012C0DD0022C0CD004
:102A6000042C0BD0082C2BD110E0202C17D0402C9C
:102A700016D0802C24D11BE000BF00BF012444707D
:102A80000024C47004710124447121E001244470C5
:102A9000C470002404710124447119E000BF00BF18
:102AA000002444700124C4700471002444710FE0B8
:102AB000012444700024C47004710124447107E0AF
:102AC000012444700024C47004710124447100BFC7
:102AD00000BFC478012C02D142F0100201E022F0C4
:102AE000100242F40075A0F8905000BF5C1CA3B225
:102AF000022BFFF6D3AE00BFEAE600004809002033
:102B0000A20800200246012A06D0022A06D0032A83
:102B100006D0042A08D105E0012070470120FCE717
:102B20000120FAE70120F8E700BF00BF0020F4E72A
:102B300010B5062004F090FB36480078002862D0DB
:102B40003548007800285ED034480088002809DD28
:102B50003348008831490988884203DB0020314925
:102B600008700DE02E4800882C490988884204DA54
:102B70002B480088401C2A490880012029490870F8
:102B80002848007890B12848008800280EDD2748A2
:102B9000008825490988884205DA24480088401CB5
:102BA0002249088002E000201E4908701D48007874
:102BB00018B31F48008D1F49098988420EDA012089
:102BC0001D4908701D48B0F9000000281BDD1C4895
:102BD0000088401C00B21A49088014E016480078AA
:102BE00088B10020144908701448B0F9000000288A
:102BF00009DD00201249088005E00F48007810B177
:102C000000200D49087000220121062004F03AFB43
:102C100010BD000073080020700800208408002008
:102C200082080020760800208808002086080020FE
:102C3000D80B0020E40800207C0800207E0800203B
:102C400080080020704738B504464FF4807000902B
:102C5000E00000F6060502222946684600F06CFCFA
:102C600000BF02222946684600F052FCBDF8000071
:102C700000F480700028F4D038BD000010B50A4878
:102C8000007F00F0010020B90848007F00F001003B
:102C900020B10748008808B900F082FC0548007898
:102CA00008B1FEF7EDF810BDD80B00201C0C002079
:102CB0009C0800207008002010B51948007850B119
:102CC0001848B0F90000002805DD16480088401EAD
:102CD00000B214490880FFF72BFF1348007838B181
:102CE000124903C90021124B181A71EB01020AD3D1
:102CF0000E48D0E900100F4BC91840F100000B4AF4
:102D0000C2E9001006E00848007818B14FF47A6074
:102D10000949086008480068401C0749086010BD60
:102D200095080020740800208E080020F805002077
:102D300040FBE1FF40420F000406002038B50020B0
:102D4000009002220421684600F0E2FBBDF800007A
:102D50000090BDF80000000A2D49087002220621EB
:102D6000684600F0D5FBBDF800000090BDF80000FB
:102D700040F6FF7101EB80202649088003F0CCFD6E
:102D8000002404E02046FFF75EFF601CC4B2204828
:102D900000788442F6DB00F03DFD00201E490870FB
:102DA0001E4908701E4908701E4908701E490870A7
:102DB0001E4908701E4908701E4908801E49088077
:102DC0001E4908801E4908801E4908801E49087057
:102DD0001E4908701E4908801E4908801E49088047
:102DE0001E49088001201E49087000211C480078F7
:102DF00003F048F800201B4908801B4908701B4954
:102E00000870FEF7F1FC002002F004F938BD000064
:102E10009E080020A00800206E08002094080020D2
:102E200095080020710800206F080020700800201D
:102E300072080020A40800208208002084080020D6
:102E400086080020880800207308002091080020D0
:102E500092080020AA0800209C0800209A08002060
:102E6000A208002096080020980800208F08002063
:102E70001CB5002001900120009000F053FE4D4849
:102E8000007840B1022240F60E01684600F040FB97
:102E9000BDF80000009000F063FB044600BF04F0A2
:102EA000010098B14448007880B902224FF4907133
:102EB00001A800F02DFBBDF80400019024F01104DE
:102EC000BDF80410C8B20021FDF740FC04F010006A
:102ED000B0B13948007898B93848007800F010004F
:102EE00070B93648007820F01000012808D024F08E
:102EF00010043249097801F00F000021FDF726FC8B
:102F00002D48007808B1FDF7A9FE2A48007800286E
:102F10004FD0BDF8000000F0010030B92749097812
:102F200001F00F000021FDF711FC04F4007060B106
:102F3000002023490880022222480188204800F00E
:102F4000FBFA24F4007400F0CDFCBDF8000000F0A2
:102F5000020010B11C48007838B1BDF8000000F044
:102F60000200D8B918480078C0B100F01FFD16481B
:102F7000007828B1BDF8000040F40070009004E033
:102F8000BDF8000020F400700090BDF80000009033
:102F9000022240F60E01684600F0CEFA00F0E0FA98
:102FA000044600BF04F4807018B124F4807400F06B
:102FB00037FB1CBDBE08002095080020A208002099
:102FC000AC080020C6080020BF08002010B5012072
:102FD00004F02CF820B1012003F0D6FF03F08CFBA5
:102FE00010BD10B5022004F021F820B1022003F03A
:102FF000CBFF03F01BFC10BD10B5202004F016F829
:1030000020B1202003F0C0FF01F0B0FE10BD38B5A4
:10301000044600200090E00000F606050222294642
:10302000684600F089FA00BF02222946684600F08F
:103030006FFABDF8000000F480700028F4D138BDAC
:1030400070B505460C460748006838B12246064868
:1030500001882846034B1B68984770BD4FF4004019
:10306000FBE70000280800206C08002070B5064629
:103070000C46154629462046FFF7E2FF70BD0000CA
:1030800010B504460548006838B1002103480068BF
:1030900000F0C0FC00200149086010BD6808002055
:1030A0002DE9F04107460C4600250F4800880C38F2
:1030B000A04200D101250D48006890B100262A46A3
:1030C00021463846094B1B6898470646002E02DD0C
:1030D0003046BDE8F08115B947F6FC70F9E70020ED
:1030E000F7E74FF40040F4E7C2080020340800205E
:1030F00010B504460348006818B120460149096824
:10310000884710BD2C08002000200349088003498F
:1031100008600349086070476408002058080020D0
:1031200068080020F8B506460F4614461D460948B3
:10313000006858B10848009403882A46394630464A
:10314000DFF810C0DCF800C0E047F8BD4FF40040E5
:10315000FBE70000240800206C0800202DE9F04166
:10316000044648F204052088801F86B2208806287D
:1031700002D20620BDE8F081E08807282ED2DFE8E1
:1031800000F0A6042E4462879500A348008828BB5F
:103190002189608941EA00473B4604F10C0231462F
:1031A0001046FFF7BFFF054600209C49086047F620
:1031B0009570854205DC01209949086099480560B1
:1031C0000BE047F6FA70854207DC0020944908605E
:1031D0009449086001209049088000BF77E08E483C
:1031E000008888B92189608941EA00473A4631461A
:1031F00004F10C0000F020F905460DB947F6FD7505
:1032000000208749086000BF61E0834800880228E9
:1032100003D081480088062814D12189608941EAB9
:1032200000477F480068874209D1314604F10C000D
:10323000FFF736FF054625B947F6FD7501E048F270
:10324000050500BF43E074480088012819D104F146
:103250000C0174480068FFF7F3FE054671480068EA
:103260006E49086047F69570854210DC6D4800682D
:1032700028446C4908606A480068401C6849086036
:1032800005E065480088042801D147F6FE751EE078
:103290006148008848B12189608941EA0047384681
:1032A000FFF726FF47F6FF7500BF10E05A48008879
:1032B000012803D058480088042807D1208904F148
:1032C0000C0256490968FFF7D1FE054600BF00BF52
:1032D00047F69570854215DC514908680321E18065
:1032E0002081020C6281A91D21804F4909880C3977
:1032F000A94203D10121484A118002E00421464A33
:10330000118061E047F6FA7085420ADC0620E08011
:10331000A5F5FE409638208100216181062020809D
:1033200052E047F6FD70854202D0401E854218D11A
:103330003B4908680968491C394A11600421E18049
:103340002081020C62810621218047F6FD718D42A9
:1033500003D10221304A118002E000212E4A11805F
:1033600032E0B5F5004F07DA00202B4908802046EF
:1033700003F06EFE0020FDE6294600200522E280D3
:1033800021810B0C63810622228010E0471004F19A
:103390000C0333F81720D3B203B90AE0431CD8B2A8
:1033A00002F47F4303B904E0431CD8B200BF2028D5
:1033B000ECDB00BF202803DA2388421C1A44228059
:1033C0000022154B1A8000BF18480078D0B1A088A1
:1033D00020F47040A0801648007800F0070010B973
:1033E000012013490870A0881149097840EA01308A
:1033F000A0800F480078401C0D490870204600F05E
:103400009DF906E04021204600F004FB08B1094880
:1034100004600020AEE60000640800206008002080
:10342000580800205C080020C00800206E0800201A
:10343000C90800206808002070B504460D461646ED
:103440000648006830B1324629462046034B1B68C7
:10345000984770BD4FF40040FBE7000030080020A3
:1034600010B572B602224FF40871024800F050F80D
:1034700062B610BD0400002010B501460A884B88D2
:103480009A420ED00A8801F1080353F82200531C17
:103490009AB20A800B888C88A34201D100230B804A
:1034A00000E0002010BD000010B504464FF400609D
:1034B00000EBC4010822024800F02AF8004810BDC1
:1034C000B008002038B504460020009000250422F2
:1034D0004FF41161684600F025F8009848B1009853
:1034E000844202D80098051B03E0C4F1FF30009924
:1034F000451844B105480068A84203D20348006853
:103500002D1A00E00025284638BD000044080020A0
:1035100070B504460D461646324629462046FEF74B
:1035200049F870BD70B504460D4616463246294628
:103530002046FEF765F870BD70B504460D46164688
:10354000324629462046FEF783F870BD70B5044622
:103550000D461646324629462046FEF79FF870BDB6
:1035600010B5FFF77DFF0148008810BD0400002062
:1035700010B500F04BF80148008810BD0400002091
:1035800010B504F0C5FA04F02BFA04F01DFB04F0AA
:1035900047F904F04DFAFDF7E3FF10BD7047000056
:1035A00010B51548007830BB14480068F0B11348D6
:1035B0000068FFF787FF114908601148406820B193
:1035C0000F4840680968884203D90C4800680C49D4
:1035D00048600C48406828B10A48406807490968B3
:1035E000884203D905480068064948600020FFF773
:1035F00069FF0249086010BD730800203C080020E4
:10360000D80B00201C0C002000BFFEE710B50222E2
:103610004FF408710148FFF785FF10BD040000203A
:103620001CB502223D48018801A8FFF771FFBDF8D3
:10363000040001903A48007801281AD10A2003F0CA
:10364000D5FD0446A4B100202060606020810420E4
:103650002080A08820F47060A0800120E0800721F5
:1036600021810021204600F0D5F9204603F0F0FC2E
:1036700000BFBDF80400801D80B201902948007889
:1036800010B92948007818B101202849087042E093
:10369000002026490870BDF80400254909888842A1
:1036A00002DD2348008801902148008803F09EFD38
:1036B000204908600846006818B901201B490870B5
:1036C0001CBDBDF80420154801881A480068FFF7A2
:1036D0001FFF00200090022240F604016846FFF719
:1036E00017FFBDF800000090BDF8000000F4006076
:1036F00068B1002010490880084800880C4A1288E8
:103700001044801E81B202220B48FFF701FF0948D6
:10371000006800F0C9F900BFD2E70000C40800202B
:10372000DC080020BD080020CA080020BC080020DA
:10373000C2080020CC080020AC080020F8B50446E0
:103740002C48007800F00F00012801D1F020F8BDCE
:103750002948007808B9F020F9E72848007808B12E
:103760000720F4E72588A81D82B225480188204655
:10377000FFF7E2FE00200090022240F60C016846AE
:10378000FFF7C6FEBDF800000090BDF8000000F491
:10379000006008BB1B480188A81D081A86B20020DB
:1037A00019490880022E0BDAA81D00EBD0714F10CA
:1037B000C6F1020204EB47011348FCF774FD00BF99
:1037C0000F4800880F4A12881044801E81B20222DE
:1037D0000D48FFF7B1FE00BF0C48006810B1002093
:1037E0000B49086009480460012004490870002062
:1037F000ADE70000A2080020BE080020BD080020A0
:10380000C6080020C0080020AC080020D008002016
:10381000CC08002008B52420214908804FF480609E
:10382000204908808000204908804FF4A0501F499B
:10383000088000201E49088048800A2088800020D7
:103840001C49088048800A20888000201A490860A6
:103850001A4908601A4908601A4908601A4908702C
:103860000090022240F60E016846FFF751FEBDF8B7
:10387000000020F400700090022240F60E0168461D
:10388000FFF75AFE002011490870114908701149CC
:10389000087011490870114908701149087008BD75
:1038A000C2080020C0080020C4080020C60800206C
:1038B000A40B0020700B0020CC080020D4080020AE
:1038C000D0080020D8080020BF080020BE08002033
:1038D000BD080020BC080020CA080020C80800203D
:1038E000C908002010B5002029490870294800683F
:1038F00048B12948006830B92648006803F0A8FBA1
:1039000000202449086025480068224908602248B0
:10391000006838B120480068FFF710FF00201E49FA
:10392000086008E01E48FFF7A7FD044614B12046D2
:10393000FFF704FF00BF1B48007838B31948007830
:1039400000F0020098B100241648007820F0020030
:103950001449087014480068FDF71CFF04462CB198
:103960001048007840F002000E4908700EE00D4843
:10397000007800F0400048B10A48007820F040008C
:103980000849087008480068FFF77AFB10BD00007E
:10399000BD080020D4080020D8080020D00800204E
:1039A000700B0020CA080020CC08002010B5144875
:1039B0000068D8B1124804681248007878B11248FB
:1039C000006860B90120FFF73EF9104800680E4911
:1039D00008600120FFF71BFB00200A490870204601
:1039E000FFF7ACFE00200649086000BF08480078D9
:1039F00008B9012000E000200549087010BD000052
:103A0000D4080020BD080020D8080020D0080020DD
:103A1000BF08002070B504460D4600261E480078F9
:103A200000F00F00012801D1F02070BDA08820F423
:103A30007040A0801948007800F0070010B90120FC
:103A400016490870A0881549097840EA0130A0801D
:103A50002046FFF773FE70B11149204601F09BFA32
:103A6000064616B145F080050AE00C480078401C77
:103A70000A49087004E009480078401C07490870AA
:103A800005F0800030B105F07F0006490978084351
:103A9000044908703046C8E7A2080020C908002081
:103AA000700B0020CA0800202DE9F04104460026D2
:103AB000A08805132788B7F5806F0EDD04202080CD
:103AC000A08820F47060A0800120E080082121817E
:103AD00000212046FFF79EFF1EE01DB10F48007831
:103AE000854215D00D4805700D49204601F053FA66
:103AF00006468EB104202080A08820F47060A0804B
:103B00000120E080268100212046FFF783FF03E0AB
:103B1000204603F09DFA0024BDE8F081C80800208B
:103B2000A40B002070B5002400BF00250F48FFF74C
:103B3000A3FC04461CB1204600F016F9054665B109
:103B400004202080A08820F47060A0800120E08004
:103B5000258100212046FFF75DFF002CE5D10448B8
:103B6000007808B1FFF75CFD70BD0000A40B0020D9
:103B7000BC08002070B500250020FFF795FC044626
:103B800060882B49088020882A4908800120FFF797
:103B90008BFC0446608828490880208827490880D3
:103BA0002448008822490988084424490988884211
:103BB0000ADD224800882049098808441D490988EF
:103BC000884201DD162070BD1B4800880C381C4956
:103BD00008800020FFF71BFA0120FFF718FA1448AD
:103BE000008803F003FB174908600846006898B98D
:103BF0000120154908700A2003F0F8FA11490860FD
:103C00000846006800B902250E48006803F020FA53
:103C100000200C49086009E000200B4908700948A1
:103C2000006803F015FA0020064908602846CAE734
:103C3000C2080020C4080020C0080020C6080020D8
:103C40006C080020CC080020DC08002038B50020DB
:103C500038490870FEF7F7FF0120FEF7F4FF3648F9
:103C6000006818B13448006803F0F2F9334800687E
:103C700048B13248006830490968884203D02F486B
:103C8000006803F0E5F92E48006878B12C48006818
:103C900029490968884209D02948006827490968E4
:103CA000884203D02648006803F0D2F901F0E2FD13
:103CB000FFF72AFA0020234908601F4908602049BD
:103CC00008601E490860204908700090022240F6F2
:103CD0000E016846FFF71CFCBDF8000020F40070E0
:103CE0000090022240F60E016846FFF725FC0020F6
:103CF0001649087016490870164908701649087068
:103D00001649087000BF1648FFF7B6FB044614B109
:103D1000204603F09DF9002CF5D100BF1148FFF7B4
:103D2000ABFB044614B1204603F092F9002CF5D108
:103D300038BD0000BE080020D4080020D8080020AC
:103D4000D0080020CC080020BF080020BD080020BB
:103D5000BC080020CA080020C8080020C9080020AC
:103D6000A40B0020700B002070B5054610480078A9
:103D7000012806D1A888C0F30320042801D002201E
:103D800070BDA888C0F30320032802D004280AD1FC
:103D900004E02846FDF74AFE044606E02846FFF701
:103DA000DDF9044601E0022400BF00BF2046E7E73A
:103DB0006E0800207CB500250020284908602849AD
:103DC000086028490860284908602849086028498F
:103DD0000860FEF7B3FFFDF789FD01202549087053
:103DE00000202549087025490860254908602549B3
:103DF00008600190002400902AE004224FF4116131
:103E000001A8FFF78FFB04224FF411616846FFF70A
:103E100089FBDDE90010884204D8DDE90001401A81
:103E2000009005E00198C0F1FF300099084400902F
:103E30001448006818B913490098086007E0114851
:103E400000680099884202D90E4900980860641CF5
:103E5000B4F57A7FD1D328467CBD00002408002029
:103E6000280800202C0800203008002034080020FA
:103E70003808002050080020480800203C08002096
:103E8000400800204408002010B52E48007800B9F2
:103E900010BD2D48007810B12C48007870BB2C481C
:103EA000007858BB28480078C8B9FFF759FB04468A
:103EB00000BF04F4806040B1012024490870254807
:103EC000007858B101F01CF808E02348008828B9B0
:103ED00004F4006010B101201C49087000BF0620E6
:103EE00003F0BAF9FEF7CAFE1C48007808B100F0EA
:103EF000C9FF00220121062003F0C4F91848046814
:103F0000C82C04D3FEF7D8FE0020154908601548D8
:103F10000068B0F57A6F01D3FDF7ACFDFEF7A8FF9E
:103F2000FDF76CFCFDF710FE0C48007808B1FEF7B9
:103F3000AFFC0D48006810B10B480068804700BF17
:103F4000A6E70000500800208F080020710800201C
:103F5000730800206F0800209C08002070080020D3
:103F600024140040040600203808002000BFFEE7AB
:103F70007047F0B503460C4603F00701C1F1070096
:103F8000042801D9042001E0C1F107000646081DFC
:103F9000072801D2002000E0C81E05460120B040DD
:103FA000401E2040A8400127AF407F1E17403843E5
:103FB000F0BD10B530238370642391FBF3F30478D4
:103FC00023440370642391FBF3F403FB1413DAB26C
:103FD0000A2392FBF3F34478234443700A2392FBB1
:103FE000F3F403FB142384782344837010BD000092
:103FF0002DE9FF5F0F4690461D460026D8F8149025
:10400000B8F80C00C0F3032B17B1BBF1070F0BD1AD
:104010004846FCF76CF986B2002D4FD0324649462F
:104020002846FCF740F949E0BBF1090F31D14FF0C8
:10403000010A03974846FCF75AF9401C00EB0904B3
:1040400017E0039882450BD12046FCF750F986B261
:104050002DB126B1324621462846FCF724F916E058
:104060000AF101001FFA80FA2046FCF740F9401CD3
:104070000444039882450ADC2078FF2807D0207882
:10408000FE2804D020784FF6FF718842D9D100BFB6
:1040900000BF9EB90C268DB10A4BD3E90102196805
:1040A000DB6801AC0DC400913946E01FFFF781FFCA
:1040B0000D2269462846FCF7F6F800BF304604B0EA
:1040C000BDE8F09FF008002030B502469489C4F3A3
:1040D0000323082B05D109B9106907E01469A01D55
:1040E00004E001EB4105146904EB450030BDF0B577
:1040F00004460D460021A889C0F30326002C02DDEA
:1041000001F1100081B2072E01D10020F0BD012382
:104110006CE0082E02D12869821D04E003EB4307FE
:10412000286900EB470210881F281FD00ADCA0F185
:104130000300092851D2DFE800F01632501731335E
:1041400050501A00B0F5187F12D006DC202829D074
:104150002E280AD02F2840D123E0A0F2622010B3ED
:1041600001283AD120E000BF00BF00BF00BF00BF60
:1041700001F10F004FF6F07700EA0701A3420CDAD5
:1041800010880B2803D01088B0F5187F02D1508812
:10419000084481B201F1100081B224E000BF00BFE9
:1041A00000BF00BF00BF00BF01F10F004FF6F07766
:1041B00000EA0701A3420FDA108840F26227B842F2
:1041C00003D010887F1CB84203D15088084481B2C4
:1041D00002E001F1200081B205E0A34202DA50883A
:1041E000084481B200BF00BF581C83B2A34290DDD7
:1041F00008468BE72DE9F04705462020A8401FFA26
:1042000080F9FDF7EBFA04464FF000081FE0208923
:10421000B0F5805F1ADB2E4696B194F80CA000270B
:104220000AE0F9B22046FFF74FFF808800EA090054
:1042300000B10026781C87B20EB15745F1DD00BFF2
:104240001EB908F101001FFA80F800BF6468002C55
:10425000DDD14046BDE8F087014601F10A00704714
:1042600070B50546FDF7BAFA044605E02089A84274
:1042700001D1204670BD6468002CF7D10020F9E719
:104280002DE9F04184461F469089C0F30324157B35
:1042900000232FB3072C02D10020BDE8F081082CA9
:1042A0000BD1906905781069008900FB05F3D81DD2
:1042B000C30801B99B1C1846EFE7012608E006EB8E
:1042C0004608106900EB480040880344701CC6B2E1
:1042D000AE42F4DDD81DC30801B99B1C1846DCE7CB
:1042E000072C04D110694088C01DC010D5E709B95A
:1042F0000120D2E7082C04D110690089C01DC0102C
:10430000CBE78D4201DA0020C7E701EB41061069D7
:1043100000EB46004088C01DC010BEE72DE9FC5FE1
:1043200005460E4617469846DDF830B02020A840D6
:1043300080B201903088B0F5805F0AD1FDF74EFA67
:10434000044644B9BBF1000F05D01B208BF80000D8
:1043500001E0204804688CB32DE02089B0F5805F2F
:1043600028DBA946B9F1000F19D0207B00904FF04F
:10437000000A0DE051462046FFF7A6FE808801990D
:10438000084008B14FF000090AF1010000F0FF0AEF
:10439000B9F1000F02D000988245EBDD00BFB9F102
:1043A000000F06D12089A8F8000008F10208B81E05
:1043B00087B200BF64680CB1012FCEDC14B1208934
:1043C000308002E04FF6FF703080024804603846CB
:1043D000BDE8FC9F1C0900202DE9FF4F87B08246F5
:1043E00089461F46149CC846B889C0F3032006902E
:1043F000387B0590CDF810900698072805D0BAF5BF
:10440000805F02DBB86900780590159860B1069866
:10441000072802D0BAF5805F03DA05200BB0BDE8AB
:10442000F08F059804901EE00598814501DD11206C
:10443000F4E708F0FF013846FFF746FE0546A88876
:1044400078B1F748007800F00F00A98800EA410031
:1044500048B9287900F0070008B90620DEE71A20DD
:10446000DCE70520DAE7F86940B1159800902346AB
:10447000FE6949465046099AB047CFE7BAF5805FD2
:104480004BDAB9F1000F48D0BE6949463846FFF70C
:104490001BFE05466888C01D4FEAE00B0396A9F194
:1044A0000100039E56F8206006F0010040B3002092
:1044B000B1B221F0010600BF0BE03188090A21806A
:1044C0002188B27841EA02212180A41CB61C411C3B
:1044D00088B20BEBDB72B0EB620FEEDB59460BEBF5
:1044E000D1725210ABEB4202012A08D1218801F4AB
:1044F0007F4121802188328841EA122121800BE00E
:104500003088208070886080241D361DABF1040245
:1045100031462046FBF7C7FE96E10020039002904B
:10452000C84688E1D7F818B00026B8F1000F08D0C7
:10453000BAF5805F05DB08F0FF003946FFF7D7FDCD
:10454000064630110BEB400B08F0FF013846FFF731
:10455000BBFD0546B248007800F00F00A98800EACC
:10456000410000287ED0C84504D0159800287AD094
:10457000C84578DBB8F1000F06D10698072803D0AC
:1045800005982080A41C23E1288800902888B0F595
:10459000E06F12DB6888082804DC68882F3080B25E
:1045A00000900AE06888102802D10620009004E0FC
:1045B0006888202801D10720009000981F287DD00E
:1045C00013DC1F287BD2DFE800F03A525C8E9D5D41
:1045D0008F9C9EE3C4C5FDFDFDFDFDAFFDFDFDB05F
:1045E000FDFDFDFDFDB1FDFD5E00342844D012DC73
:1045F00030283DD008DC202873D02D2840D02E282C
:1046000073D02F285BD17FE0312832D0322831D0CF
:104610003328F7D12FE0B0F5187F71D006DC3528AC
:104620002BD036282AD03728ECD128E0A0F2612000
:1046300000286FD001286ED00228E3D18EE01598B3
:1046400090B1A87800F00F00002805DDA87830446C
:1046500000F00F0000B9A41CA878C0F3031004EB0D
:10466000400403E0B5E0E2E01820D7E6ACE000BF8C
:1046700000BF00BF00BF00BF00BF00BF00BF00BF42
:1046800000BF00BF00BF00206988664A32F81110E1
:1046900006F00F02914089B20191BBF8000006F0CC
:1046A0000F0109B90021218021882180159939B194
:1046B0002188019A02401143218009E016E081E03F
:1046C0000199014006F00F02114122881143218017
:1046D00021882180A978314401F00F0101B9A41C7F
:1046E00072E012E001E000BF00BF00BF06F00F0063
:1046F00008B1052092E6BBF800002080A41C63E00E
:1047000029E000BF00BF00BF00BF06F00F0018B1D6
:10471000052083E620E020E0BBF800002080BBF805
:1047200002006080241D4FE000BF00BF06F00F00B4
:1047300008B1052072E6BBF800002080BBF802003B
:104740006080BBF80400A080BBF80600E08008345D
:104750003AE000BF00BF00BF00BF00BF06F00F007F
:1047600008B105205AE66888C01DC2105946204687
:10477000FBF799FD688820F00F000F30001104EB63
:104780004004A87800F00F0008B1207820801BE0DA
:1047900006F00F0008B1052040E66888C01DC21071
:1047A00059462046FBF77FFD688820F00F000F3048
:1047B000001104EB4004A87800F00F0008B1207845
:1047C000208001E0182029E600BF0120039000BFEF
:1047D0002DE0002006F00F0109B900212180A97801
:1047E00001F00F01002907DDA978314401F00F0124
:1047F00011B9A41C00212180002004E0A41C002188
:104800002180411CC8B2A978C1F303118142F5DCB3
:10481000297901F0070139B90621029106E000006B
:10482000A2080020D08400081A21029100BF08F1DC
:1048300001001FFA80F8049880457FF773AE039853
:1048400008B90298EAE500BF0020E7E52DE9FF4F2F
:1048500089B006468B469A46169CD846BAF80C0094
:10486000C0F303200890002007909AF80C000690EF
:1048700000200590CDF810B0089807281FD0DAF86E
:104880001800007807900798C8B941F61040864292
:1048900003DB41F62F4086420FDDB6F5B05F02DB49
:1048A000B6F5C05F09DBB6F5D05F02DBB6F5E05FB9
:1048B00003DB4FF23000864201D10698079017982B
:1048C00080B10898072803D105200DB0BDE8F08F0E
:1048D000BBF1000F03D10B9808B12078079007981F
:1048E00004901DE00798834501DD1120EDE759464E
:1048F0005046FFF7E9FB0546287900F03800F749F4
:10490000097801EAA00058B9287900F0380028B9E0
:10491000A88808B90520D8E70720D6E71A20D4E7E9
:10492000BBF1000F1EDD41F61040864203DB41F66D
:104930002F4086420FDDB6F5B05F02DBB6F5C05FF3
:1049400009DBB6F5D05F02DBB6F5E05F03DB4FF2C3
:104950003000864206D1DAF81810087808B1012133
:10496000059100BFDAF8200048B11798009023465F
:10497000DAF82070594630460B9AB847A5E7002070
:104980000390072002900B9808B900209DE7D846B5
:10499000E0E1DAF818704FF0000908F0FF01504626
:1049A000FFF792FB054608F0FF005146FFF79FFB1B
:1049B0008146287900F03800C849097801EAA0004A
:1049C00000286FD0B8F1000F03D04FEA291007EB91
:1049D0004007D84504D0179800287CD0D8457ADB0A
:1049E000B8F1000F0CD10898072809D02178069853
:1049F000884201DA132068E720883880A41C8CE103
:104A0000288800902888B0F5E06F12DB68880828B5
:104A100004DC68882F3080B200900AE06888102893
:104A200002D10620009004E06888202801D10720E8
:104A3000009000981F2877D013DC1F2875D2DFE87C
:104A400000F03B535D94FD5E95FCFBFAF9F874743D
:104A5000747474F7747474F67474747474F5747490
:104A60005F00342845D012DC30283ED008DC2028F6
:104A700078D02D2841D02E2879D02F2855D1E6E0A6
:104A8000312833D0322832D03328F7D130E0B0F596
:104A9000187F69D007DC35282CD036282BD0372852
:104AA000ECD129E03CE1A0F2612000287ED0012871
:104AB0007DD00228E2D10CE1179890B1A87800F0DF
:104AC0000F00002805DDA878484400F00F0000B969
:104AD000A41CA87800E039E1C0F3031004EB400403
:104AE00001E01820F1E616E100BF00BF00BF00BFE3
:104AF00000BF00BF00BF00BF00BF00BF00BF00BFBE
:104B000000216888764A32F8100009F00F029040C0
:104B100080B20190398801988143179830B120887C
:104B2000019A1040014315E022E0F2E020886A88F3
:104B30006B4B33F81220904308B11220C5E6208851
:104B40006A88674B33F81220104009F00F0290403A
:104B5000084381B23980A878484400F00F0000B9BA
:104B6000A41CD8E074E002E0B0E000BF00BF00BFCA
:104B700009F00F0008B10520A7E62388059820B1A9
:104B80003888984201D01C209FE641F610408642AA
:104B900015DB41F62F40864211DCB3F5B05F02DB36
:104BA000B3F5C05F0BDBB3F5D05F01E08FE08FE0C2
:104BB00002DBB3F5E05F02DB0BB1122085E641F6C4
:104BC0003240864202D0401C86423AD1B8F1010FF1
:104BD0000ED13888984208D019463046FDF740F982
:104BE0000290029808B102986FE601203D490870D2
:104BF000B8F1080F25D100203B4948613B480861C6
:104C0000002048603A4948613848086100204860FF
:104C100003F00200022814D100203349488508859A
:104C200081F8400032494885088508E029E027E0FE
:104C300025E04AE048E033E008E005E005E081F8DF
:104C400040003B80A41C66E000BF00BF00BF00BF67
:104C500009F00F0008B1052037E6059848B13888FB
:104C60002188884203D178886188884201D01C203D
:104C70002BE62088388060887880241D4BE000BFB8
:104C800000BF09F00F0008B105201EE6208838801B
:104C900060887880A088B880E088F88008343AE09E
:104CA00009F00F0008B105200FE66888C01DC2108A
:104CB00021463846FBF7F7FA688820F00F000F30DE
:104CC000001104EB400426E000BF00BF00BF00BF9E
:104CD00000BF09F00F0068B10520F6E5A20800202A
:104CE000D0840008E0080020D80B002020A1070095
:104CF0001C0C00206888C01DC21021463846FBF7F6
:104D0000D2FA688820F00F000F30001104EB400445
:104D100001E01820D9E500BF00BF0120039015E095
:104D2000B8F1000F01D1A41C0EE0A87800F00F002C
:104D3000002805DDA878484400F00F0000B9A41C45
:104D40006888000904EB40041820029008F1010073
:104D50001FFA80F8049880457FF71BAE039808B9C6
:104D60000298B2E500BF0020AFE5000010B5394859
:104D7000007800286BD0FEF7FBFB044600BF04F46C
:104D8000806078B33448007828B13448007810B196
:104D90000020334908803348008D002804DD314865
:104DA000008D401E2F4908852E48008D2E4908850C
:104DB00001202E4908702E48007810B100F0A0F8AC
:104DC00010E002222B4801882B48FEF7ABFB294854
:104DD00000882A4A12881044801E81B20222264886
:104DE000FEF7A0FB1F484088012801D1FDF746FFD0
:104DF0002348007848B11C484088012803D01A484D
:104E00004088222801D100F03DF8FEF7B1FB0446AE
:104E100000BF04F48060C8B11248408D401C1149A5
:104E200048850846408D104948850222114801886E
:104E30001148FEF777FB0F480088104A128810448B
:104E4000801E81B202220C48FEF76CFB00BFFCF70B
:104E50004DFE10BD8F08002076080020730800204A
:104E600078080020D80B00201C0C002071080020BE
:104E70006F080020A6080020AC0800209C08002035
:104E80007008002070B50024FEF772FB054600BFD5
:104E90001648007F00F0010020B91548007F00F09F
:104EA000010018B10020FEF70DFB04461148FCF785
:104EB0007FF911480288114801880E48FEF746FB29
:104EC0000A48007F00F0010020B90948007F00F087
:104ED000010048B12046FEF7F5FA0446044840694F
:104EE000A04201D20248446170BD0000D80B0020EE
:104EF0001C0C00202C0B00209A080020A808002081
:104F000010B500241B48007F00F0010020B91A48AA
:104F1000007F00F0010068B10020FEF7D3FA0446DC
:104F200016480460012016490870002015490860E1
:104F3000FEF736FB14480288144801881448FEF72F
:104F4000F1FA1348FCF7BEF90A48007F00F00100AF
:104F500020B90948007F00F0010048B12046FEF763
:104F6000B1FA044603484069A04201D201484461B5
:104F700010BD0000D80B00201C0C002040080020B1
:104F8000480800204C0800209C080020A6080020AB
:104F9000E80A0020704710B503464888401C82B2DA
:104FA0008888904200D100220888904201D10720D1
:104FB00010BD4C8801F1080040F824304A800020E0
:104FC000F6E700002DE9F04104460D4616461F465F
:104FD000DDF8188041F2F800844202D00B20BDE8D1
:104FE000F081B8F1000F01D00520F8E7002D01DDB8
:104FF0001120F4E7082E01D90F20F0E7FCF73AFD65
:10500000324603493846FBF74EF90020E7E7000037
:10501000F805002038B5044602224FF401716846B5
:10502000FEF776FABDF8000020400090062002F05E
:1050300013F902224FF401716846FEF77DFA00224F
:105040000121062002F01EF938BD00002DE9F04FC5
:1050500089B004460026277A07F0E00820880890E7
:105060000020079082460690F948007818B1092080
:1050700009B0BDE8F08FB8F1000F71D0B8F1200F82
:1050800006D0B8F1400F04D0B8F1600F69D1BBE190
:1050900000BF94F80AB04FF6FF7000EA0B2B20898E
:1050A0000BEB10201FFA80FB60894FEA102958464D
:1050B000FFF7D6F80546002D6ED00020059004902D
:1050C0000390287B02900298814501DD112608E0BB
:1050D00007F010032A4649465846FFF7D1F88246A2
:1050E00006900EBBB8F1400F23D108980A2801D0D2
:1050F0000820BDE7BAF1040F0DD8BAF1000F0AD0AD
:105100000120059004F10C00049000210498018016
:105110000498418010E0CF48008810380690069827
:10512000504502D20120039006E004F110000490E3
:1051300002E007F0020005906EBBB8F1200F38D1F5
:10514000059878B108980A2801D0082090E7C7F39D
:105150008100C0F10400069004F10C00049028E0E6
:1051600051E164E1A289E08902EB004101F1100004
:10517000B94A1288904207D9B7480088801F089A18
:1051800090420AD0082073E701F10A00089A904281
:1051900003D008206CE70CE033E104F11000049028
:1051A000069108980A380699884201D20120039096
:1051B00000BF46B907F0100028B101200790B9F1EF
:1051C000010F00DD0526002E35D1039800287DD083
:1051D0000120A2490870A2490870A24907980870E6
:1051E000A148A0F800B0A14880F80090A048056050
:1051F000B8F1400F03D19F48C0F800A002E09D49DC
:10520000069808609C48006830B19B48006801F02F
:105210001FFF00209849086096490968491C490801
:10522000480001F0E3FF944908600846006828B987
:10523000079808B10526E3E00426E1E0B8F1400F45
:105240004BD18D49079809682B465246CDE900108D
:1052500049465846FFF7C0F8064656B98648069AAA
:10526000016804F11000FBF71EF860208349087004
:1052700042E0FF2E40D104208149087081490798FF
:105280000870814880F800908048A0F800B08048FD
:10529000C0F800A0784800687E4908607E49E86947
:1052A000086001206A4908707C4804600068008931
:1052B00020F0FF0079490968088178480068008972
:1052C00007F0F00108437549096800E018E008811B
:1052D00060206A4908700020CAE60898A0F10A0216
:1052E00004F1100164480068FAF7DDFF002063490B
:1052F000087008980A3806906949069808607FE0A7
:10530000BAF1000F07D15848A0F800B0574880F80C
:10531000009057480560B8F1400F38D107990498BC
:105320002B465246CDE9000149465846FFF754F84E
:105330000646FF2E64D10320514908705149079851
:105340000870514880F800905048A0F800B05048CC
:10535000C0F800A04F49049808604F49E869086008
:1053600001203B4908704D4804600068008920F026
:10537000FF004A490968088148480068008907F029
:10538000F0010843454909680881002070E6079943
:1053900004982B46CDE9000149465846069AFFF786
:1053A00055FA0646FF2E2BD10121354801703549AB
:1053B00007980870344880F800903448A0F800B08E
:1053C0003349069808603349049808603249286ACE
:1053D000086001201E490870304804600068008998
:1053E00020F0FF002D49096808812C4800680089D9
:1053F00007F0F0010843294909680881002037E6D1
:1054000000E0082615E000BF1C48007880450CD15C
:10541000B8F1000F04D1204600F086FA064605E0F8
:10542000204600F043FC064600E0032601E0032688
:1054300000BF00BFFF2E09D0CDE900A4069883B2BB
:1054400007F010024146304600F0C0FB00200FE696
:1054500024090020C0080020C208002026090020DE
:105460003009002027090020280900202A090020EF
:1054700038090020340900201409002025090020E3
:105480000009002001090020020900200409002071
:10549000080900200C090020100900202009002024
:1054A0002C0900202DE9FE4F044600200290207AAE
:1054B00000F07F064FF00209052E05D120880A284A
:1054C00007DA0620BDE8FE8F2088082801DA0620CA
:1054D000F8E7012E04D0032E7ED0052E7DD18DE07D
:1054E000A08905287ADC002594F80CA00E2221461C
:1054F0009E48FAF7D8FEBAF10000AAF1010101F0C6
:10550000FF0A14D19A49088080460BE04046FEF716
:1055100071FE834608F10400A11D21F810B0C01EE1
:1055200000F0FF08B8F1050FF0DB122544E04FF062
:10553000000B8F48008870B18E4800880C3885B207
:1055400004F10C088C480088019089480088401EAE
:10555000874908801DE05046FEF74CFE83464FF415
:1055600080500190834800880E3885B204F10E08FF
:10557000B5EB4B0F0ADAA91C88B2C5EB4B02411EF2
:10558000114491FBF0F17A4A118002E00020784941
:10559000088002A843462A4601A900905046FEF71B
:1055A000BDFE0546BDF804007349088071480088B7
:1055B000401B801F85B200BF25809DF80800D0B930
:1055C000208920F07F002081208940F00200208186
:1055D00067480188618102E00FE0A2E00CE00088EA
:1055E00048B1208920F080002081208940F080008F
:1055F00020814FF0820900BF96E000BFA089019092
:10560000BDF80400B0F5805F02DA0520029087E063
:10561000BDF80400FEF724FE0746002F7ED00025CB
:10562000032E21D13846FEF717FE01460968C4F85B
:105630000E1000233A461946BDF80400FEF7D8FCC8
:105640000C3085B24B480088801FA84201DA0C2537
:1056500054E004F112033A460021BDF80400FEF7BD
:10566000C7FC0C3085B249E094F80E803846FEF74E
:10567000F3FD90F802B0D8453DDC41463846FEF7D0
:1056800023FD01460A6822618988A182A17BE1810C
:105690003846FEF7E1FDB0F802A0CAF3032ABAF1DA
:1056A000080F02D0BAF1090F0AD1B8F1000F07D1E3
:1056B0000D22324904F11600FAF7F5FD1C2519E018
:1056C00000233A464146BDF80400FEF791FC103035
:1056D00085B228480088801FA84201DA102509E019
:1056E00004F116033A464146BDF80400FEF780FC7B
:1056F000103085B201E01120029000BF9DF8080033
:1057000050B9002161812580208920F07F0020810F
:105710002089711C0843208102E0FFE708200290E5
:1057200002E00320029000BF00BF9DF80800A0B176
:105730000A202080208920F07F002081208940F0ED
:1057400007002081002161810D489DF8081050F864
:105750002110E16000200649088049462046FEF7F6
:1057600059F908B1074804600020ABE6600C00203E
:1057700018090020C00800201A090020F0080020A5
:10578000F0840008540800202DE9FC4781460C46AF
:10579000154600262D480078002854D02C48006873
:1057A000007A00F0E0072A480068007A00F010084C
:1057B000402F3AD127480088103886B2A64218D226
:1057C00001202549087025490870254880F8008087
:1057D000244804606020244908702448056032464B
:1057E00029461B4800681030FAF75DFD2048066026
:1057F0001BE0042C0DD864B1154800680C308542BC
:1058000013D022462946124800680C30FAF74BFDA7
:105810000BE00F4800681030854206D0224629462A
:105820000B4800681030FAF73EFD00200749087069
:1058300007480068334642463946CDE900404846AD
:1058400000F0C4F900BFBDE8FC8700002409002077
:1058500020090020C008002026090020300900206F
:105860002709002034090020250900201409002000
:105870002C09002010B51D480078012815D11C48BE
:10588000006890B11A4800681A49096888420CD02B
:105890001748006818490968884206D0144800680B
:1058A00001F0D6FB0020124908600020134908705F
:1058B0001349087013490880134908701349086098
:1058C00013490860134908600849087012480068C5
:1058D00030B11148006801F0BBFB00200E490860A0
:1058E00000200E4908600E49087010BD24090020F0
:1058F00020090020D4080020D8080020000900203A
:1059000001090020040900200209002008090020E4
:105910000C09002010090020140900202C09002087
:1059200025090020704700002DE9FC4104460027AE
:105930000025207A00F0100090490978884201D1B2
:105940000127E4E08E48008809381FFA80F8207AA1
:1059500000F01000894908708A48006800286FD05C
:105960008948006889490968451A207A00F00100D1
:10597000C8B1454515D82088C11EA94206D3217A51
:10598000C1F34201C1F10701A94204D0072D06D994
:10599000C11EA94203D100217D4A117000E00E27EB
:1059A00009E00E2707E0012079490870454501D834
:1059B0000E2700E04546002F7ED100267348007870
:1059C00000F0010070B37148006840086D49096833
:1059D00011F810006D49096849086A4A126822F8EE
:1059E00011006A48006840086649096831F81000EB
:1059F000218901F47F410843644909684908614AE3
:105A0000126822F811006A1E60490968012303EB3D
:105A100051015C4B1B6803EB410004F10A01FAF7EA
:105A200042FC26E0A17A2089001261F30F20574939
:105A300009684908534A126822F81100012614E047
:105A400063E004F10A0010F81620711E30F811000E
:105A5000001262F30F204D49096806EB5101494AD3
:105A6000126822F81100701C86B2681CB6EB500F49
:105A7000E7D347480078002846D146480078414996
:105A80000968CDE90010444803683F48026843486C
:105A9000017843480088FEF7D9FE0746FF2F2CD136
:105AA0000220404908703B4800783F4908703B4855
:105AB00000783E49087000E028E0394800883C49F9
:105AC0000880314800683B4908602E4800683A4920
:105AD000086031480068006A384908600120384988
